:020000040000fa
:080000000002040000000000f2
:020000040000fa
:04000800c80200002a
:020000040000fa
:04000c00c802000026
:020000040000fa
:04001000c802000022
:020000040000fa
:04001400c80200001e
:020000040000fa
:04001800c80200001a
:020000040000fa
:04001c00c802000016
:020000040000fa
:04002000c802000012
:020000040000fa
:04002400c80200000e
:020000040000fa
:04002800c80200000a
:020000040000fa
:04002c00c802000006
:020000040000fa
:04003000c802000002
:020000040000fa
:040034003609000089
:020000040000fa
:04003800c8020000fa
:020000040000fa
:04003c00c8020000f6
:020000040000fa
:04004000c8020000f2
:020000040000fa
:040044001c09000093
:020000040000fa
:04004800c8020000ea
:020000040000fa
:04004c00c8020000e6
:020000040000fa
:04005000c8020000e2
:020000040000fa
:04005400c8020000de
:020000040000fa
:04005800c8020000da
:020000040000fa
:04005c00c8020000d6
:020000040000fa
:04006000c8020000d2
:020000040000fa
:04006400c8020000ce
:020000040000fa
:04006800c8020000ca
:020000040000fa
:04006c00c8020000c6
:020000040000fa
:04007000c8020000c2
:020000040000fa
:04007400c8020000be
:020000040000fa
:04007800c8020000ba
:020000040000fa
:04007c00c8020000b6
:020000040000fa
:04008000c8020000b2
:020000040000fa
:04008400c8020000ae
:020000040000fa
:04008800c8020000aa
:020000040000fa
:04008c00c8020000a6
:020000040000fa
:04009000c8020000a2
:020000040000fa
:04009400c80200009e
:020000040000fa
:04009800c80200009a
:020000040000fa
:04009c00c802000096
:020000040000fa
:0400a000c802000092
:020000040000fa
:0400a400c80200008e
:020000040000fa
:0400a800c80200008a
:020000040000fa
:0400ac00c802000086
:020000040000fa
:0400b000c802000082
:020000040000fa
:0400b400c80200007e
:020000040000fa
:0400b800c80200007a
:020000040000fa
:0400bc00c802000076
:020000040000fa
:0400c000c802000072
:020000040000fa
:0400c400c80200006e
:020000040000fa
:0400c800c80200006a
:020000040000fa
:0400cc00c802000066
:020000040000fa
:0400d000c802000062
:020000040000fa
:0400d400c80200005e
:020000040000fa
:0400d800c80200005a
:020000040000fa
:0400dc00c802000056
:020000040000fa
:0400e000c802000052
:020000040000fa
:0400e400c80200004e
:020000040000fa
:0400e800c80200004a
:020000040000fa
:0400ec00c802000046
:020000040000fa
:0400f000c802000042
:020000040000fa
:0400f400c80200003e
:020000040000fa
:0400f800c80200003a
:020000040000fa
:0400fc00c802000036
:020000040000fa
:04010000c802000031
:020000040000fa
:04010400c80200002d
:020000040000fa
:04010800c802000029
:020000040000fa
:04010c00c802000025
:020000040000fa
:04011000c802000021
:020000040000fa
:04011400c80200001d
:020000040000fa
:04011800c802000019
:020000040000fa
:04011c00c802000015
:020000040000fa
:04012000c802000011
:020000040000fa
:04012400c80200000d
:020000040000fa
:04012800c802000009
:020000040000fa
:04012c00c802000005
:020000040000fa
:04013000c802000001
:020000040000fa
:04013400c8020000fd
:020000040000fa
:04013800c8020000f9
:020000040000fa
:04013c00c8020000f5
:020000040000fa
:04014000c8020000f1
:020000040000fa
:04014400c8020000ed
:020000040000fa
:04014800c8020000e9
:020000040000fa
:04020800c802000028
:020000040000fa
:04020c00c802000024
:020000040000fa
:04021000c802000020
:020000040000fa
:04021400c80200001c
:020000040000fa
:04021800c802000018
:020000040000fa
:04021c00c802000014
:020000040000fa
:04022000c802000010
:020000040000fa
:04022400c80200000c
:020000040000fa
:04022800c802000008
:020000040000fa
:04022c00c802000004
:020000040000fa
:04023000c802000000
:020000040000fa
:04023400c8020000fc
:020000040000fa
:04023800c8020000f8
:020000040000fa
:04023c00c8020000f4
:020000040000fa
:04024000c8020000f0
:020000040000fa
:04024400c8020000ec
:020000040000fa
:04024800c8020000e8
:020000040000fa
:04024c00c8020000e4
:020000040000fa
:04025000c8020000e0
:020000040000fa
:04025400c8020000dc
:020000040000fa
:04025800c8020000d8
:020000040000fa
:04025c00c8020000d4
:020000040000fa
:04026000c8020000d0
:020000040000fa
:04026400c8020000cc
:020000040000fa
:04026800c8020000c8
:020000040000fa
:04026c00c8020000c4
:020000040000fa
:04027000c8020000c0
:020000040000fa
:04027400c8020000bc
:020000040000fa
:04027800c8020000b8
:020000040000fa
:04027c00c8020000b4
:020000040000fa
:04028000c8020000b0
:020000040000fa
:04028400c8020000ac
:020000040000fa
:04028800c8020000a8
:020000040000fa
:04028c00c8020000a4
:020000040000fa
:04029000c8020000a0
:020000040000fa
:04029400c80200009c
:020000040000fa
:04029800c802000098
:020000040000fa
:04029c00c802000094
:020000040000fa
:0402a000c802000090
:020000040000fa
:0402a400c80200008c
:020000040000fa
:0402a800c802000088
:020000040000fa
:0402ac00c802000084
:020000040000fa
:0402b000c802000080
:020000040000fa
:0402b400c80200007c
:020000040000fa
:0402b800c802000078
:020000040000fa
:0402bc00c802000074
:020000040000fa
:0402c000c802000070
:020000040000fa
:0402c400c80200006c
:020000040000fa
:0402c800c802000068
:020000040000fa
:0402cc00c802000064
:020000040000fa
:0402d000c802000060
:020000040000fa
:0402d400c80200005c
:020000040000fa
:0402d800c802000058
:020000040000fa
:0402dc00c802000054
:020000040000fa
:0402e000c802000050
:020000040000fa
:0402e400c80200004c
:020000040000fa
:0402e800c802000048
:020000040000fa
:0402ec00c802000044
:020000040000fa
:0402f000c802000040
:020000040000fa
:0402f400c80200003c
:020000040000fa
:0402f800c802000038
:020000040000fa
:0402fc00c802000034
:020000040000fa
:04030000c80200002f
:020000040000fa
:04030400c80200002b
:020000040000fa
:04030800c802000027
:020000040000fa
:04030c00c802000023
:020000040000fa
:04031000c80200001f
:020000040000fa
:04031400c80200001b
:020000040000fa
:04031800c802000017
:020000040000fa
:04031c00c802000013
:020000040000fa
:04032000c80200000f
:020000040000fa
:04032400c80200000b
:020000040000fa
:04032800c802000007
:020000040000fa
:04032c00c802000003
:020000040000fa
:04033000c8020000ff
:020000040000fa
:04033400c8020000fb
:020000040000fa
:04033800c8020000f7
:020000040000fa
:04033c00c8020000f3
:020000040000fa
:04034000c8020000ef
:020000040000fa
:04034400c8020000eb
:020000040000fa
:04034800c8020000e7
:020000040000fa
:100400002f8320000e7f22000e01880000000000d4
:10041000000020000000e000020032000001200087
:1004200020028800140007005b0007000000e000c5
:1004300003003a00c0a7200001002000020037009e
:100440000000200001002000810f70000100320038
:1004500014000700000020000000e000020032004d
:100460000000020000000000fa020200000000008c
:100470000040da000000fe004440a900c002200055
:100480000000e0000300320000002000a00188000e
:100490004440a800000006008a1f78008b1f7800e7
:1004a0000000060091018800800478000000eb0045
:1004b0001a003700e284440032a0b4009905ba0063
:1004c000e284440032a0b4009906ba00e2844400f9
:1004d00032a0b4000006eb00476fde00fd07b2005b
:1004e000636ce10003003a00ebff07000000eb0043
:1004f0000a003700606ce10004003a00005deb0088
:100500008b05e900fdff3e00040037006168e10053
:10051000010032000086eb000b00070019c7ba008b
:100520001905ba000e04e00003003a000a00e000da
:10053000e0ff3a0000000600fe07b2009e018800be
:100540008a047800f5ff3700395dba008b05e900b1
:100550000c003200295dba008b05e900080032006a
:100560000c00e00003003a00e284440032a0b40032
:10057000f5ff370019ddba008b05e900faff3a00f4
:100580008904e800e184440032a0b40000000600c1
:0c0590000040da000000fe000000050042
:020000040000fa
:10059c00486500006c6c00006f2c000020550000ba
:1005ac004152000054200000210d000000480000c2
:1005bc00656c00006c6f00002c20000055410000a1
:1005cc005254000020320000210d00000061000098
:1005dc0000790000006b00000031000000300000ca
:0805ec00000d000000000000fa
:020000040000fa
:1005f4000200fa00c9c2a800c9e2a800c902a80002
:10060400c922a8006ac0a8006aa0a8006980a8003e
:100614006960a8002d43a8002d23a800c822a900c2
:10062400c862a900c882a900c942a900c802a900d9
:10063400c082a9006a000700e02c2800a10007007e
:1006440012002000030020000040eb00ac00070073
:1006540022002000030020000040eb00a800070057
:1006640032002000030020000040eb00a40007003b
:1006740042002000030020000040eb00a00007001f
:10068400401f200001002000b5010700d02d2800e4
:100694008c0007000000eb00000f78000000eb0066
:1006a400000f78001f0037009e007800a082200011
:1006b400008140009e00780060822000808040001d
:1006c400e08220001e0040001040780095010700e1
:1006d400608220001e004000104078003a010700ac
:1006e40080007800028120001e0078000000400095
:1006f4000000410001087800a08220001e00400094
:1007040010407800300107008000780082802000cb
:100714001e0078000000400000004100010878003d
:100724001e0fe8001e007800e30f5000deff3400c7
:100734000300070016000700ce010700feff370084
:100744000000fa0005e1a9000421a90021088000a5
:10075400f0fc2f00008060000050a00020088800fa
:10076400c00720001008880005e1a8008460a900e3
:100774009460a80021058000f0ff2800008060003c
:1007840000c0a000200588000080fa0000000600d8
:100794000000fa0011e1a9001021a90081088000dd
:1007a400f0fc2f00008060000040a000800888005a
:1007b400f00420006008880011e1a80084e0a9008a
:1007c40094e0a80031058000f0ff2800008060005c
:1007d40000c0a000300588000080fa000000060078
:1007e4000000fa00c9a2a900c982a80061368000ed
:1007f400f00f2e00808060000030200001007000a7
:10080400603688002135800000fe2f0000806000e3
:10081400c000b30020358800c000200040118800cb
:1008240041058000f0ff28000080600000c0a000a7
:10083400400588002222ef000000280000118800f3
:100844002342a80011118000f0f32f000080600003
:10085400101188009580a9009560a8000080fa0016
:10086400000006000200fa00004f780000000000bb
:100874001111800000102000008060000000e000e2
:10088400fbff32001e00fb00201188000080fa00ec
:10089400000006000200fa00004f7800000000008b
:1008a4001111800000102000008060000000e000b2
:1008b400fbff32001e80fb00201188000080fa003c
:1008c400000006000200fa00000f78000400370060
:1008d4001e00780010407800e2ff07001e0fe800b9
:1008e4001e007800104078000004e000f8ff3a0091
:1008f4000040eb00dbff07000080fa000000060068
:100904000600fa00004f78001207980023079800a9
:100914001e009000ae009000220020000300200082
:10092400820f5000838f58002200320022002000e2
:1009340003002000820f5000838f580006003e0001
:100944001200200003002000820f5000838f580003
:100954000c0032003b00370032002000030020006e
:10096400820f5000838f58001e0032004200200086
:1009740003002000820f5000838f580025003200ae
:10098400300037001e80fb000000ea004f00de004c
:10099400004078000080fb0061006000000040001f
:1009a400611680000110a10001007000601688002b
:1009b400240037001e80fb000000ea004f00de0028
:1009c400004078000080fb00610060004300dd000f
:1009d400611680000130a1000100700060168800db
:1009e400180037001e80fb000000ea004f00de0004
:1009f400004078000080fb00610060004400dd00de
:100a0400611680000140a10001007000601688009a
:100a14000c0037001e80fb000000ea004f00de00df
:100a2400004078000080fb00610060004a00dd00a7
:100a34006116800001a0a10001007000601688000a
:100a4400000000000080fa00000006000800fa0020
:100a5400004f780011079800220798003307980088
:100a64009e80fb001e0090000088de006100600094
:100a7400004078000004e000050032002e019000e0
:100a8400be01900010c0b3009dff070004003700b2
:100a94002e019000be0190000040eb0098ff07007b
:100aa4000080fa00000006000000fa0060168000d2
:100ab4006100600000f0a7000000ea000000e90007
:100ac4004f00de00004078000080fb006100600001
:100ad400611680000100a10001007000601688000a
:100ae40040062000010020009d00070060168000e1
:100af4006100600000f0a7000000ea000000e900c7
:100b04004f00de00004078000080fb0061006000c0
:100b1400611680000100a1000100700060168800c9
:100b240040062000010020008d0007000080fa002c
:100b3400000006000000fa0020168000700060002b
:100b440000f0a7000000ea000000e9004f00de000a
:100b5400004078000080fb00610060004400dd007c
:100b6400211680000140a1000100700020168800b9
:100b740040062000010020007900070020168000b4
:100b84007000600000f0a7000000ea000000e90027
:100b94004f00de00004078000080fb006100600030
:100ba4004400dd00211680000140a1000100700016
:100bb400201688004006200001002000680007007d
:100bc4000080fa00000006000a00fa00004f9800b6
:100bd4000000eb00000f7800400020002007980080
:100be4000000eb00100798000000eb0010079800cd
:100bf4001a0037000e4890008080fb001e00900011
:100c04000088de006100600030079800ae009000ac
:100c14001e009000008050000000e9000000400029
:100c2400be0090000008dd001e0f7000ae009000b2
:100c34001e009000008050000000e9000000400009
:100c44000000e800be0090000008dd001e0f7000e8
:100c54001e0090000000e800100798009e0090001d
:100c64002e009000808f5000e2ff35001e007800b7
:100c74004600dd007f0f70001e0078000080fa003f
:100c8400000006000a00fa00004f98000000eb0084
:100c9400000f780080002000200798000000eb007f
:100ca400100798000000eb001007980014003700ac
:100cb4000e4890008080fb001e0090000088de003b
:100cc40061006000300798001e00900000004000a2
:100cd400be0090000008dd001e0f70001e00900092
:100ce400000040000000e800be0090000008dd00a5
:100cf4001e0f70001e0090000000e800100798000e
:100d04009e0090002e009000808f5000e8ff350078
:100d140000f021001e0f70001e0078000080fa0011
:100d2400000006000600fa00004f78001107980042
:100d3400220798001e80fb004400de0080407800fb
:100d44001e009000014878001e417800ef406100c9
:100d54002e009000014878000080fa000000060090
:100d64000c00fa0040079800510798006000b80092
:100d7400008fbe00150037006000b80020079800ff
:100d840031079800060037002e009000be00900046
:100d940061004000e0804800200798003107980077
:100da4002e019000be019000803e20000100200032
:100db400800f5100818f5900f3ff3600120020008c
:100dc400030020001e0f41005e9749004e00900072
:100dd400de0090001e01be00800f5100818f59007b
:100de400e5ff36000080fa00000006000200fa0069
:100df400004f78001e80fb00e20f50000e0032000e
:100e0400e20f500003003c00e10f500006003200e6
:100e140015003700e30f50000b003200e40f5000c0
:100e24000d00320010003700501680004e00de0026
:100e3400614060000d003700501680004f00de0056
:100e44000040780009003700501680004800de009a
:100e54006140600005003700501680004900de0044
:100e640061406000010037000040eb000080fa00a0
:100e7400000006000400fa000040eb00004f780078
:100e840002c8bf000004e00015003a0040c0b300ef
:100e9400d6ff07000004e000e400320030c0b300d5
:100ea400d2ff07000004e000e000320020c0b300dd
:100eb400ceff07000004e000dc00320010c0b300e5
:100ec400caff07000004e000d80032001c28ef002d
:100ed40010c0b30002e8b7000068ef00d300370089
:100ee40002c8bf00e14f5000d0003a00e04080004b
:100ef400ec0f500018003a0040c0b300bbff0700dd
:100f04000004e0000c00320030c0b300b7ff07005b
:100f14000004e0000800320020c0b300b3ff070063
:100f24000004e0000400320010c0b300afff07006b
:100f34000004e00005003a000168ef000268ef00d9
:100f4400d02e28005ffe07009200370010c0b300c7
:100f540001e8b7008f00370001c8bf000004e000bb
:100f64008c00320001c8bf00e14f50001f003a005e
:100f740001c8bf000080fb007900b90000007800c0
:100f8400ec004000e0408000808f500017003a00e1
:100f940040c0b30095ff07000004e0000c003200dd
:100fa40030c0b30091ff07000004e00008003200e5
:100fb40020c0b3008dff07000004e00004003200ed
:100fc40010c0b30089ff07000004e00005003a00e8
:100fd4000168ef000268ef00f02e280039fe0700d8
:100fe4000200370020c0b30001e8b70001c8bf0009
:100ff400e24f50003a003a0001c8bf000080fb00f5
:101004007900b90000007800e4004000e04080006e
:10101400808f500012003a0040c0b30073ff0700f5
:101024000004e0000c00320030c0b3006fff070082
:101034000004e0000800320020c0b3006bff07008a
:101044000004e0000400320010c0b30067ff070092
:101054000004e00002003a000168ef000268ef00bb
:1010640001c8bf000080fb007900b90000007800cf
:10107400f0004000e0408000808f500018003a00eb
:1010840040c0b30059ff07000004e0000c003a0020
:1010940030c0b30055ff07000004e00008003a0028
:1010a40020c0b30051ff07000004e00004003a0030
:1010b40010c0b3004dff07000004e000050032003b
:1010c4000168ef000268ef00102f2800fdfd070003
:1010d400030037000068ef0030c0b30001e8b70038
:1010e40001c8bf00e24f50002a00360001c8bf000b
:1010f400e34f500003003a0040c0b3003bff070039
:10110400004f780001c8bf00e44f500003003a00cc
:1011140030c0b30035ff0700004f780001c8bf009e
:10112400e54f500003003a0020c0b3002fff070032
:10113400004f780001c8bf00e64f500003003a009a
:1011440010c0b30029ff0700004f780001c8bf009a
:101154000080fb007900b90000007800ec0040003a
:10116400e0408000808f50000a003a0000c8bf00b1
:101174000080fb0000004000804078001e407800a2
:1011840000c0700000e8b70001c8bf000040e800dc
:1011940001e8b70001c8bf00e64f50002300360045
:1011a4000168ef001ac8bf000040e8001ae8b70061
:1011b4000268ef000000eb00100798000000eb004d
:1011c400100798001000370000c8bf008080fb00a3
:1011d4001e0090000088de0061006000004078007e
:1011e4000004e00003003200302f2800b5fd0700a2
:1011f40002003700502f2800b2fd07001e009000a7
:101204000000e800100798001e009000e30f500053
:10121400edff34001ac8bf00e24f500003003a004b
:10122400702f2800a7fd07001a68ef000080fa005d
:1012340000000600801f78003400f8000000200041
:10124400a00188000000fa00e04080000000e800ef
:10125400e040880084e0a9000080fa003400f9002e
:101264004f007800004006003600f800809fbe0062
:10127400829fbe00849fbe00869fbe003400f8009b
:1012840000002000a00188000400fa002040800033
:1012940031408000e00f5000e08f58000f003a000a
:1012a400c0408000610060000000e0000b003a00d4
:1012b400c1408000200020000001780011000900d6
:1012c4008200d8000181200000004000008040001e
:1012d40010007800204188000b003700c0408000d7
:1012e4008000e900200020000001780011000900be
:1012f4008200d8008180200000004000008040006f
:101304001000780020418800f04080000000e900cf
:10131400f0408800f04080000000e0004700340006
:10132400f0408000ee0f500044003c00f04080008c
:1013340000407800e1c0b30000c05000004f7800c6
:10134400214180001e00fb000008de000040780000
:101354006140600010479800f0408000ee0f50009c
:1013640014003c00f0408000e80f500011003400ed
:101374001e409000120020000300200060fd0700c2
:101384001e40900022002000030020005cfd0700a6
:101394001e409000320020000300200058fd07008a
:1013a4001e409000420020000300200054fd07006e
:1013b400220037001e407800614060000004e00015
:1013c40010003a0012002000030020000040eb004f
:1013d4004bfd070022002000030020000040eb002a
:1013e40047fd070032002000030020000040eb000e
:1013f40043fd070042002000030020000040eb00f2
:101404003ffd0700f04080008000e800200020003d
:1014140000017800110009008200d80020479800dc
:101424002e4090000080fb008000eb001e429000e4
:101434000001be000440780031fd0700f040800048
:101444000000e00009003a002040800031408000a4
:101454000080ea008180ea00204088003140880052
:10146400c04080000000e800c0408800c040800008
:10147400e70f5000010034001828ef00f04080000e
:101484000000e00012003c00401f2000f0408800f3
:1014940012002000030020000040eb0018fd0700ac
:1014a40022002000030020000040eb0014fd070090
:1014b40032002000030020000040eb0010fd070074
:1014c40042002000030020000040eb000cfd070058
:1014d4008460a9000080fa003400f9004f03be00c4
:1014e4004f02be004f01be004f00be003600f9009f
:0414f40000400600ae
:020000040000fa
:1014f8002e0800000400000002000000e5c1e5001d
:10150800f5000000260800000800000000000000a8
:101518000008000020000000000000002008000073
:101528000600000002000000e5000300001f330071
:0415380000000000af
:020000040000fa
:020000040001f9
:0407f800beff000040
:020000040000fa
:020000040001f9
:0407fc00ff7f00007b
:00000001FF
